{
  "contractName": "TodoList",
  "abi": [
    {
      "constant": true,
      "inputs": [],
      "name": "taskCount",
      "outputs": [
        {
          "name": "",
          "type": "uint256"
        }
      ],
      "payable": false,
      "stateMutability": "view",
      "type": "function",
      "signature": "0xb6cb58a5"
    }
  ],
  "bytecode": "0x608060405260008055348015601357600080fd5b506099806100226000396000f3fe608060405260043610603e5763ffffffff7c0100000000000000000000000000000000000000000000000000000000600035041663b6cb58a581146043575b600080fd5b348015604e57600080fd5b5060556067565b60408051918252519081900360200190f35b6000548156fea165627a7a723058208644ea4730cafe59b5c9137209b2d8ef0241aa78602f10f62f84f3f00848bf430029",
  "source": "//SPDX-License-Identifier: MIT\npragma solidity >=0.5.0 <0.9.0;\n\n\ncontract TodoList {\n  //When public is declared, Solidity automatically creates a \n  //function for access the variable, in this case taskCount.  \n  uint public taskCount = 0;\n}",
  "sourcePath": "/home/wilfred/Documents/Programming Resources/Product Assessment/crypto/ethereum/eth-todo-list/contracts/Todo_List.sol",
  "compiler": {
    "name": "solc",
    "version": "0.5.0+commit.1d4f565a.Emscripten.clang"
  },
  "schemaVersion": "3.0.1",
  "updatedAt": "2024-06-15T00:34:09.933Z",
  "devdoc": {
    "methods": {}
  },
  "userdoc": {
    "methods": {}
  }
}